{
  "address": "0x1BF07d9620c286Ffb8DeD071246df673E8b5082c",
  "abi": [
    {
      "inputs": [],
      "stateMutability": "nonpayable",
      "type": "constructor"
    },
    {
      "inputs": [
        {
          "internalType": "address",
          "name": "owner",
          "type": "address"
        }
      ],
      "name": "OwnableInvalidOwner",
      "type": "error"
    },
    {
      "inputs": [
        {
          "internalType": "address",
          "name": "account",
          "type": "address"
        }
      ],
      "name": "OwnableUnauthorizedAccount",
      "type": "error"
    },
    {
      "anonymous": false,
      "inputs": [
        {
          "indexed": true,
          "internalType": "address",
          "name": "previousOwner",
          "type": "address"
        },
        {
          "indexed": true,
          "internalType": "address",
          "name": "newOwner",
          "type": "address"
        }
      ],
      "name": "OwnershipTransferred",
      "type": "event"
    },
    {
      "inputs": [],
      "name": "MAX_LEVEL",
      "outputs": [
        {
          "internalType": "uint256",
          "name": "",
          "type": "uint256"
        }
      ],
      "stateMutability": "view",
      "type": "function"
    },
    {
      "inputs": [],
      "name": "MAX_MINERS_PER_USER",
      "outputs": [
        {
          "internalType": "uint256",
          "name": "",
          "type": "uint256"
        }
      ],
      "stateMutability": "view",
      "type": "function"
    },
    {
      "inputs": [],
      "name": "MINER1_INITIAL_COST",
      "outputs": [
        {
          "internalType": "uint256",
          "name": "",
          "type": "uint256"
        }
      ],
      "stateMutability": "view",
      "type": "function"
    },
    {
      "inputs": [],
      "name": "MINER2_INITIAL_COST",
      "outputs": [
        {
          "internalType": "uint256",
          "name": "",
          "type": "uint256"
        }
      ],
      "stateMutability": "view",
      "type": "function"
    },
    {
      "inputs": [],
      "name": "MINER3_INITIAL_COST",
      "outputs": [
        {
          "internalType": "uint256",
          "name": "",
          "type": "uint256"
        }
      ],
      "stateMutability": "view",
      "type": "function"
    },
    {
      "inputs": [],
      "name": "SUPPLY_CAP",
      "outputs": [
        {
          "internalType": "uint256",
          "name": "",
          "type": "uint256"
        }
      ],
      "stateMutability": "view",
      "type": "function"
    },
    {
      "inputs": [],
      "name": "_getCurrentRate",
      "outputs": [
        {
          "internalType": "uint256",
          "name": "",
          "type": "uint256"
        }
      ],
      "stateMutability": "view",
      "type": "function"
    },
    {
      "inputs": [],
      "name": "_getTotalPower",
      "outputs": [
        {
          "internalType": "uint256",
          "name": "totalPower",
          "type": "uint256"
        }
      ],
      "stateMutability": "view",
      "type": "function"
    },
    {
      "inputs": [
        {
          "internalType": "uint256",
          "name": "",
          "type": "uint256"
        }
      ],
      "name": "allMiners",
      "outputs": [
        {
          "internalType": "address",
          "name": "",
          "type": "address"
        }
      ],
      "stateMutability": "view",
      "type": "function"
    },
    {
      "inputs": [
        {
          "internalType": "uint256",
          "name": "minerType",
          "type": "uint256"
        }
      ],
      "name": "buyMiner",
      "outputs": [],
      "stateMutability": "payable",
      "type": "function"
    },
    {
      "inputs": [],
      "name": "claimFunds",
      "outputs": [],
      "stateMutability": "nonpayable",
      "type": "function"
    },
    {
      "inputs": [],
      "name": "claimOre",
      "outputs": [],
      "stateMutability": "nonpayable",
      "type": "function"
    },
    {
      "inputs": [],
      "name": "gameEnd",
      "outputs": [
        {
          "internalType": "uint256",
          "name": "",
          "type": "uint256"
        }
      ],
      "stateMutability": "view",
      "type": "function"
    },
    {
      "inputs": [],
      "name": "getCurrentMiningRate",
      "outputs": [
        {
          "internalType": "uint256",
          "name": "",
          "type": "uint256"
        }
      ],
      "stateMutability": "view",
      "type": "function"
    },
    {
      "inputs": [
        {
          "internalType": "address",
          "name": "user",
          "type": "address"
        },
        {
          "internalType": "uint256",
          "name": "minerType",
          "type": "uint256"
        }
      ],
      "name": "getMinerStats",
      "outputs": [
        {
          "internalType": "bool",
          "name": "exists",
          "type": "bool"
        },
        {
          "internalType": "uint256",
          "name": "level",
          "type": "uint256"
        },
        {
          "internalType": "uint256",
          "name": "power",
          "type": "uint256"
        },
        {
          "internalType": "uint256",
          "name": "totalMined",
          "type": "uint256"
        },
        {
          "internalType": "uint256",
          "name": "oreSinceLast",
          "type": "uint256"
        },
        {
          "internalType": "uint256",
          "name": "lastClaimTime",
          "type": "uint256"
        }
      ],
      "stateMutability": "view",
      "type": "function"
    },
    {
      "inputs": [],
      "name": "getTotalGlobalPower",
      "outputs": [
        {
          "internalType": "uint256",
          "name": "",
          "type": "uint256"
        }
      ],
      "stateMutability": "view",
      "type": "function"
    },
    {
      "inputs": [
        {
          "internalType": "address",
          "name": "user",
          "type": "address"
        }
      ],
      "name": "getUserStats",
      "outputs": [
        {
          "internalType": "uint256",
          "name": "numberOfMiners",
          "type": "uint256"
        },
        {
          "internalType": "uint256",
          "name": "totalMinedByUser",
          "type": "uint256"
        }
      ],
      "stateMutability": "view",
      "type": "function"
    },
    {
      "inputs": [
        {
          "internalType": "uint256",
          "name": "",
          "type": "uint256"
        }
      ],
      "name": "miner1Powers",
      "outputs": [
        {
          "internalType": "uint256",
          "name": "",
          "type": "uint256"
        }
      ],
      "stateMutability": "view",
      "type": "function"
    },
    {
      "inputs": [
        {
          "internalType": "uint256",
          "name": "",
          "type": "uint256"
        }
      ],
      "name": "miner1UpgradeCosts",
      "outputs": [
        {
          "internalType": "uint256",
          "name": "",
          "type": "uint256"
        }
      ],
      "stateMutability": "view",
      "type": "function"
    },
    {
      "inputs": [
        {
          "internalType": "uint256",
          "name": "",
          "type": "uint256"
        }
      ],
      "name": "miner2Powers",
      "outputs": [
        {
          "internalType": "uint256",
          "name": "",
          "type": "uint256"
        }
      ],
      "stateMutability": "view",
      "type": "function"
    },
    {
      "inputs": [
        {
          "internalType": "uint256",
          "name": "",
          "type": "uint256"
        }
      ],
      "name": "miner2UpgradeCosts",
      "outputs": [
        {
          "internalType": "uint256",
          "name": "",
          "type": "uint256"
        }
      ],
      "stateMutability": "view",
      "type": "function"
    },
    {
      "inputs": [
        {
          "internalType": "uint256",
          "name": "",
          "type": "uint256"
        }
      ],
      "name": "miner3Powers",
      "outputs": [
        {
          "internalType": "uint256",
          "name": "",
          "type": "uint256"
        }
      ],
      "stateMutability": "view",
      "type": "function"
    },
    {
      "inputs": [
        {
          "internalType": "uint256",
          "name": "",
          "type": "uint256"
        }
      ],
      "name": "miner3UpgradeCosts",
      "outputs": [
        {
          "internalType": "uint256",
          "name": "",
          "type": "uint256"
        }
      ],
      "stateMutability": "view",
      "type": "function"
    },
    {
      "inputs": [
        {
          "internalType": "address",
          "name": "",
          "type": "address"
        }
      ],
      "name": "minerCount",
      "outputs": [
        {
          "internalType": "uint256",
          "name": "",
          "type": "uint256"
        }
      ],
      "stateMutability": "view",
      "type": "function"
    },
    {
      "inputs": [
        {
          "internalType": "address",
          "name": "",
          "type": "address"
        },
        {
          "internalType": "uint256",
          "name": "",
          "type": "uint256"
        }
      ],
      "name": "miners",
      "outputs": [
        {
          "internalType": "bool",
          "name": "exists",
          "type": "bool"
        },
        {
          "internalType": "uint256",
          "name": "level",
          "type": "uint256"
        },
        {
          "internalType": "uint256",
          "name": "lastClaim",
          "type": "uint256"
        },
        {
          "internalType": "uint256",
          "name": "totalMined",
          "type": "uint256"
        },
        {
          "internalType": "uint256",
          "name": "power",
          "type": "uint256"
        }
      ],
      "stateMutability": "view",
      "type": "function"
    },
    {
      "inputs": [],
      "name": "ore",
      "outputs": [
        {
          "internalType": "contract OREToken",
          "name": "",
          "type": "address"
        }
      ],
      "stateMutability": "view",
      "type": "function"
    },
    {
      "inputs": [],
      "name": "owner",
      "outputs": [
        {
          "internalType": "address",
          "name": "",
          "type": "address"
        }
      ],
      "stateMutability": "view",
      "type": "function"
    },
    {
      "inputs": [
        {
          "internalType": "address",
          "name": "",
          "type": "address"
        }
      ],
      "name": "registeredMiners",
      "outputs": [
        {
          "internalType": "bool",
          "name": "",
          "type": "bool"
        }
      ],
      "stateMutability": "view",
      "type": "function"
    },
    {
      "inputs": [],
      "name": "renounceOwnership",
      "outputs": [],
      "stateMutability": "nonpayable",
      "type": "function"
    },
    {
      "inputs": [],
      "name": "totalMinedGlobal",
      "outputs": [
        {
          "internalType": "uint256",
          "name": "",
          "type": "uint256"
        }
      ],
      "stateMutability": "view",
      "type": "function"
    },
    {
      "inputs": [
        {
          "internalType": "address",
          "name": "newOwner",
          "type": "address"
        }
      ],
      "name": "transferOwnership",
      "outputs": [],
      "stateMutability": "nonpayable",
      "type": "function"
    },
    {
      "inputs": [
        {
          "internalType": "uint256",
          "name": "minerType",
          "type": "uint256"
        }
      ],
      "name": "upgradeMiner",
      "outputs": [],
      "stateMutability": "payable",
      "type": "function"
    },
    {
      "stateMutability": "payable",
      "type": "receive"
    }
  ],
  "transactionHash": "0x28c65226338dfdbe876d586eab1f32d582d4d828b56a49b2745081951ea14a01",
  "args": [],
  "numDeployments": 1,
  "solcInputHash": "d12de7bec27e28a5505ccc3114941871",
  "bytecode": "0x6101206040526658d15e1762800060a090815266b1a2bc2ec5000060c05267016345785d8a000060e0526702c68af0bb1400006101005262000046906007906004620002aa565b506040805160a0810182526001815260026020820152600391810191909152600460608201526005608082018190526200008391600b91620002f8565b5060408051608081018252670214e8348c4f000081526703782dace9d9000060208201526706f05b59d3b20000918101919091526709b6e64a8ec600006060820152620000d5906010906004620002aa565b506040805160a0810182526001815260026020820152600391810191909152600460608201526005608082018190526200011291601491620002f8565b50604080516080810182526706f05b59d3b200008152670de0b6b3a76400006020820152671158e460913d000091810191909152671f399b1438a10000606082015262000164906019906004620002aa565b506040805160a081018252600281526004602082015260069181019190915260086060820152600a6080820152620001a190601d906005620002f8565b50348015620001af57600080fd5b503380620001d757604051631e4fbdf760e01b81526000600482015260240160405180910390fd5b620001e2816200025a565b506a18d0bf423c03d8de000000604051620001fd906200032e565b908152602001604051809103906000f08015801562000220573d6000803e3d6000fd5b50600680546001600160a01b0319166001600160a01b039290921691909117905562000251426301e1338062000353565b6080526200037b565b600080546001600160a01b038381166001600160a01b0319831681178455604051919092169283917f8be0079c531659141344cd1fd0a4f28419497f9722a3daafe3b4186f6b6457e09190a35050565b8260048101928215620002e6579160200282015b82811115620002e657825182906001600160401b0316905591602001919060010190620002be565b50620002f49291506200033c565b5090565b8260058101928215620002e6579160200282015b82811115620002e6578251829060ff169055916020019190600101906200030c565b610c55806200191583390190565b5b80821115620002f457600081556001016200033d565b808201808211156200037557634e487b7160e01b600052601160045260246000fd5b92915050565b608051611569620003ac6000396000818161024c0152818161068801528181610a0c0152610c2101526115696000f3fe6080604052600436106101e65760003560e01c806362de3bd111610102578063ac30777311610095578063cc372aed11610064578063cc372aed146105fa578063df91bc111461061a578063f2fde38b1461062f578063f3afc6741461064f57600080fd5b8063ac30777314610589578063ae5820131461059e578063afaf8343146105be578063c3c97a38146105da57600080fd5b80638da5cb5b116100d15780638da5cb5b146104e95780638f3c762b14610507578063a327f4d114610547578063a49062d41461057457600080fd5b806362de3bd11461043a5780636cf639151461044d578063715018a61461049c5780638c16300d146104b157600080fd5b8063253358eb1161017a57806350d547551161014957806350d547551461036f57806352e5249a146103f0578063569bf09414610410578063612d79e81461042557600080fd5b8063253358eb146102ed578063366e3d2a146103025780633a77bf831461031e5780634e43603a1461033a57600080fd5b80630e8724b1116101b65780630e8724b11461028d5780630ec1ce16146102ad57806310541a84146102c257806321f3658b146102d857600080fd5b8062ce8066146101f25780630a762437146102255780630b8eebde1461023a5780630cfccc831461026e57600080fd5b366101ed57005b600080fd5b3480156101fe57600080fd5b5061021261020d3660046113b9565b61066f565b6040519081526020015b60405180910390f35b6102386102333660046113b9565b610686565b005b34801561024657600080fd5b506102127f000000000000000000000000000000000000000000000000000000000000000081565b34801561027a57600080fd5b506102126a18d0bf423c03d8de00000081565b34801561029957600080fd5b506102126102a83660046113b9565b6108fc565b3480156102b957600080fd5b5061021261090c565b3480156102ce57600080fd5b5061021260055481565b3480156102e457600080fd5b50610212600381565b3480156102f957600080fd5b50610238610a0a565b34801561030e57600080fd5b5061021267016345785d8a000081565b34801561032a57600080fd5b5061021267058d15e17628000081565b34801561034657600080fd5b5061035a6103553660046113ee565b610a9d565b6040805192835260208301919091520161021c565b34801561037b57600080fd5b506103c661038a366004611410565b600160208181526000938452604080852090915291835291208054918101546002820154600383015460049093015460ff909416939192909185565b6040805195151586526020860194909452928401919091526060830152608082015260a00161021c565b3480156103fc57600080fd5b5061021261040b3660046113b9565b610b24565b34801561041c57600080fd5b50610212610b34565b34801561043157600080fd5b50610212610b43565b6102386104483660046113b9565b610c1f565b34801561045957600080fd5b5061046d610468366004611410565b610eed565b6040805196151587526020870195909552938501929092526060840152608083015260a082015260c00161021c565b3480156104a857600080fd5b50610238611074565b3480156104bd57600080fd5b506006546104d1906001600160a01b031681565b6040516001600160a01b03909116815260200161021c565b3480156104f557600080fd5b506000546001600160a01b03166104d1565b34801561051357600080fd5b506105376105223660046113ee565b60046020526000908152604090205460ff1681565b604051901515815260200161021c565b34801561055357600080fd5b506102126105623660046113ee565b60026020526000908152604090205481565b34801561058057600080fd5b50610212600581565b34801561059557600080fd5b50610238611086565b3480156105aa57600080fd5b506104d16105b93660046113b9565b6110cb565b3480156105ca57600080fd5b50610212670de0b6b3a764000081565b3480156105e657600080fd5b506102126105f53660046113b9565b6110f5565b34801561060657600080fd5b506102126106153660046113b9565b611105565b34801561062657600080fd5b50610212611115565b34801561063b57600080fd5b5061023861064a3660046113ee565b61111f565b34801561065b57600080fd5b5061021261066a3660046113b9565b61115a565b6007816004811061067f57600080fd5b0154905081565b7f00000000000000000000000000000000000000000000000000000000000000004211156106cf5760405162461bcd60e51b81526004016106c69061143a565b60405180910390fd5b600181101580156106e1575060038111155b6106fd5760405162461bcd60e51b81526004016106c69061145d565b3360009081526001602090815260408083208484529091529020805460ff1661075e5760405162461bcd60e51b8152602060048201526013602482015272135a5b995c88191bd95cdb89dd08195e1a5cdd606a1b60448201526064016106c6565b60058160010154106107a65760405162461bcd60e51b815260206004820152601160248201527013585e081b195d995b081c995858da1959607a1b60448201526064016106c6565b6107af3361116a565b60008083600103610801576007600184600101546107cd919061149f565b600481106107dd576107dd6114b8565b01549150600b8360010154600581106107f8576107f86114b8565b01549050610892565b836002036108475760106001846001015461081c919061149f565b6004811061082c5761082c6114b8565b0154915060148360010154600581106107f8576107f86114b8565b8360030361089257601960018460010154610862919061149f565b60048110610872576108726114b8565b01549150601d83600101546005811061088d5761088d6114b8565b015490505b8134146108d85760405162461bcd60e51b8152602060048201526014602482015273125b98dbdc9c9958dd0811551208185b5bdd5b9d60621b60448201526064016106c6565b6001830180549060006108ea836114ce565b90915550506004909201919091555050565b600b816005811061067f57600080fd5b6000696342fd08f00f637800006005541015610930575068056bc75e2d6310000090565b69c685fa11e01ec6f00000600554101561095257506802b5e3af16b188000090565b6a018d0bf423c03d8de000006005541015610975575068015af1d78b58c4000090565b6a031a17e847807b1bc000006005541015610997575067a688906bd8b0000090565b6a06342fd08f00f63780000060055410156109b957506753444835ec58000090565b6a0c685fa11e01ec6f00000060055410156109db57506729a2241af62c000090565b6a129c8f71ad02e2a680000060055410156109fd5750671bc16d674ec8000090565b50670de0b6b3a764000090565b7f0000000000000000000000000000000000000000000000000000000000000000421115610a4a5760405162461bcd60e51b81526004016106c69061143a565b33600090815260026020526040902054610a925760405162461bcd60e51b81526020600482015260096024820152684e6f206d696e65727360b81b60448201526064016106c6565b610a9b3361116a565b565b6001600160a01b0381166000908152600260205260408120549060015b6001600160a01b0384166000908152600260205260409020548111610b1e576001600160a01b0384166000908152600160209081526040808320848452909152902060030154610b0a90836114e7565b915080610b16816114ce565b915050610aba565b50915091565b6014816005811061067f57600080fd5b6000610b3e610b43565b905090565b6000805b600354811015610c1b57600060038281548110610b6657610b666114b8565b6000918252602090912001546001600160a01b0316905060015b6001600160a01b0382166000908152600260205260409020548111610c11576001600160a01b038216600090815260016020908152604080832084845290915290205460ff1615610bff576001600160a01b0382166000908152600160209081526040808320848452909152902060040154610bfc90856114e7565b93505b80610c09816114ce565b915050610b80565b5050600101610b47565b5090565b7f0000000000000000000000000000000000000000000000000000000000000000421115610c5f5760405162461bcd60e51b81526004016106c69061143a565b60018110158015610c71575060038111155b610c8d5760405162461bcd60e51b81526004016106c69061145d565b33600090815260026020526040902054600311610ce15760405162461bcd60e51b815260206004820152601260248201527113585e081b5a5b995c9cc81c995858da195960721b60448201526064016106c6565b33600090815260026020526040902054610cfc9060016114e7565b8114610d4a5760405162461bcd60e51b815260206004820152601860248201527f4d75737420627579206d696e65727320696e206f72646572000000000000000060448201526064016106c6565b60008082600103610d6e5767016345785d8a00009150600b60005b01549050610da2565b82600203610d8a5767058d15e176280000915060146000610d65565b82600303610da2575050601d54670de0b6b3a7640000905b813414610de85760405162461bcd60e51b8152602060048201526014602482015273125b98dbdc9c9958dd0811551208185b5bdd5b9d60621b60448201526064016106c6565b6040805160a081018252600180825260208083018281524284860190815260006060860181815260808701898152338084528787528984208d855287528984209851895460ff19169015151789559451968801969096559151600280880191909155915160038701559351600490950194909455825291909152908120805491610e71836114ce565b90915550503360009081526004602052604090205460ff16610ee8576003805460018181019092557fc2575a0e9e593c00f959f8c92f12db2869c3395a3b0502d05e2516446f71f85b0180546001600160a01b031916339081179091556000908152600460205260409020805460ff191690911790555b505050565b60008060008060008060018710158015610f08575060038711155b610f245760405162461bcd60e51b81526004016106c69061145d565b5050506001600160a01b03851660009081526001602081815260408084208885528252808420815160a081018352815460ff1615801580835295830154948201859052600283015493820184905260038301546060830181905260049093015460808301819052959950939750939550939290918790610fa75750806040015142115b8015610fbf57506a18d0bf423c03d8de000000600554105b15611069576000610fce610b43565b90506000610fda61090c565b90508115611066576000836040015142610ff4919061149f565b90506000838386608001518461100a91906114fa565b61101491906114fa565b61101e9190611511565b90506a18d0bf423c03d8de0000008160055461103a91906114e7565b111561105f57600554611058906a18d0bf423c03d8de00000061149f565b9650611063565b8096505b50505b50505b509295509295509295565b61107c61133c565b610a9b6000611369565b61108e61133c565b600080546040516001600160a01b03909116914780156108fc02929091818181858888f193505050501580156110c8573d6000803e3d6000fd5b50565b600381815481106110db57600080fd5b6000918252602090912001546001600160a01b0316905081565b6019816004811061067f57600080fd5b601d816005811061067f57600080fd5b6000610b3e61090c565b61112761133c565b6001600160a01b03811661115157604051631e4fbdf760e01b8152600060048201526024016106c6565b6110c881611369565b6010816004811061067f57600080fd5b600080806000611178610b43565b9050600061118461090c565b905060015b6001600160a01b038716600090815260026020526040902054811161125c576001600160a01b0387166000908152600160209081526040808320848452909152902060028101546111da904261149f565b95506000861180156111ec5750600084115b1561124957838382600401548861120391906114fa565b61120d91906114fa565b6112179190611511565b94504281600201819055508481600301600082825461123691906114e7565b90915550611246905085886114e7565b96505b5080611254816114ce565b915050611189565b508460000361126d57505050505050565b6a18d0bf423c03d8de0000008560055461128791906114e7565b11156112b7576005546112a5906a18d0bf423c03d8de00000061149f565b9450846000036112b757505050505050565b84600560008282546112c991906114e7565b90915550506006546040516340c10f1960e01b81526001600160a01b03888116600483015260248201889052909116906340c10f1990604401600060405180830381600087803b15801561131c57600080fd5b505af1158015611330573d6000803e3d6000fd5b50505050505050505050565b6000546001600160a01b03163314610a9b5760405163118cdaa760e01b81523360048201526024016106c6565b600080546001600160a01b038381166001600160a01b0319831681178455604051919092169283917f8be0079c531659141344cd1fd0a4f28419497f9722a3daafe3b4186f6b6457e09190a35050565b6000602082840312156113cb57600080fd5b5035919050565b80356001600160a01b03811681146113e957600080fd5b919050565b60006020828403121561140057600080fd5b611409826113d2565b9392505050565b6000806040838503121561142357600080fd5b61142c836113d2565b946020939093013593505050565b60208082526009908201526823b0b6b29037bb32b960b91b604082015260600190565b602080825260129082015271496e76616c6964206d696e6572207479706560701b604082015260600190565b634e487b7160e01b600052601160045260246000fd5b818103818111156114b2576114b2611489565b92915050565b634e487b7160e01b600052603260045260246000fd5b6000600182016114e0576114e0611489565b5060010190565b808201808211156114b2576114b2611489565b80820281158282048414176114b2576114b2611489565b60008261152e57634e487b7160e01b600052601260045260246000fd5b50049056fea2646970667358221220fabca5574a0bddd99159e64fc04f4eb09076d27babc0aa90c7f9783b9bc51c0964736f6c6343000817003360a06040523480156200001157600080fd5b5060405162000c5538038062000c5583398101604081905262000034916200012c565b336040518060400160405280600981526020016827b932902a37b5b2b760b91b815250604051806040016040528060038152602001624f524560e81b8152508160039081620000849190620001ed565b506004620000938282620001ed565b5050506001600160a01b038116620000c557604051631e4fbdf760e01b81526000600482015260240160405180910390fd5b620000d081620000da565b50608052620002b9565b600580546001600160a01b038381166001600160a01b0319831681179093556040519116919082907f8be0079c531659141344cd1fd0a4f28419497f9722a3daafe3b4186f6b6457e090600090a35050565b6000602082840312156200013f57600080fd5b5051919050565b634e487b7160e01b600052604160045260246000fd5b600181811c908216806200017157607f821691505b6020821081036200019257634e487b7160e01b600052602260045260246000fd5b50919050565b601f821115620001e8576000816000526020600020601f850160051c81016020861015620001c35750805b601f850160051c820191505b81811015620001e457828155600101620001cf565b5050505b505050565b81516001600160401b0381111562000209576200020962000146565b62000221816200021a84546200015c565b8462000198565b602080601f831160018114620002595760008415620002405750858301515b600019600386901b1c1916600185901b178555620001e4565b600085815260208120601f198616915b828110156200028a5788860151825594840194600190910190840162000269565b5085821015620002a95787850151600019600388901b60f8161c191681555b5050505050600190811b01905550565b608051610979620002dc60003960008181610169015261032d01526109796000f3fe608060405234801561001057600080fd5b50600436106100ea5760003560e01c806370a082311161008c57806395d89b411161006657806395d89b41146101ec578063a9059cbb146101f4578063dd62ed3e14610207578063f2fde38b1461024057600080fd5b806370a08231146101a0578063715018a6146101c95780638da5cb5b146101d157600080fd5b806323b872dd116100c857806323b872dd14610142578063313ce56714610155578063355274ea1461016457806340c10f191461018b57600080fd5b806306fdde03146100ef578063095ea7b31461010d57806318160ddd14610130575b600080fd5b6100f7610253565b60405161010491906107c2565b60405180910390f35b61012061011b36600461082d565b6102e5565b6040519015158152602001610104565b6002545b604051908152602001610104565b610120610150366004610857565b6102ff565b60405160128152602001610104565b6101347f000000000000000000000000000000000000000000000000000000000000000081565b61019e61019936600461082d565b610323565b005b6101346101ae366004610893565b6001600160a01b031660009081526020819052604090205490565b61019e6103b0565b6005546040516001600160a01b039091168152602001610104565b6100f76103c4565b61012061020236600461082d565b6103d3565b6101346102153660046108b5565b6001600160a01b03918216600090815260016020908152604080832093909416825291909152205490565b61019e61024e366004610893565b6103e1565b606060038054610262906108e8565b80601f016020809104026020016040519081016040528092919081815260200182805461028e906108e8565b80156102db5780601f106102b0576101008083540402835291602001916102db565b820191906000526020600020905b8154815290600101906020018083116102be57829003601f168201915b5050505050905090565b6000336102f381858561041f565b60019150505b92915050565b60003361030d858285610431565b6103188585856104af565b506001949350505050565b61032b61050e565b7f00000000000000000000000000000000000000000000000000000000000000008161035660025490565b6103609190610922565b11156103a25760405162461bcd60e51b815260206004820152600c60248201526b10d85c08195e18d95959195960a21b60448201526064015b60405180910390fd5b6103ac828261053b565b5050565b6103b861050e565b6103c26000610571565b565b606060048054610262906108e8565b6000336102f38185856104af565b6103e961050e565b6001600160a01b03811661041357604051631e4fbdf760e01b815260006004820152602401610399565b61041c81610571565b50565b61042c83838360016105c3565b505050565b6001600160a01b0383811660009081526001602090815260408083209386168352929052205460001981146104a9578181101561049a57604051637dc7a0d960e11b81526001600160a01b03841660048201526024810182905260448101839052606401610399565b6104a9848484840360006105c3565b50505050565b6001600160a01b0383166104d957604051634b637e8f60e11b815260006004820152602401610399565b6001600160a01b0382166105035760405163ec442f0560e01b815260006004820152602401610399565b61042c838383610698565b6005546001600160a01b031633146103c25760405163118cdaa760e01b8152336004820152602401610399565b6001600160a01b0382166105655760405163ec442f0560e01b815260006004820152602401610399565b6103ac60008383610698565b600580546001600160a01b038381166001600160a01b0319831681179093556040519116919082907f8be0079c531659141344cd1fd0a4f28419497f9722a3daafe3b4186f6b6457e090600090a35050565b6001600160a01b0384166105ed5760405163e602df0560e01b815260006004820152602401610399565b6001600160a01b03831661061757604051634a1406b160e11b815260006004820152602401610399565b6001600160a01b03808516600090815260016020908152604080832093871683529290522082905580156104a957826001600160a01b0316846001600160a01b03167f8c5be1e5ebec7d5bd14f71427d1e84f3dd0314c0f7b2291e5b200ac8c7c3b9258460405161068a91815260200190565b60405180910390a350505050565b6001600160a01b0383166106c35780600260008282546106b89190610922565b909155506107359050565b6001600160a01b038316600090815260208190526040902054818110156107165760405163391434e360e21b81526001600160a01b03851660048201526024810182905260448101839052606401610399565b6001600160a01b03841660009081526020819052604090209082900390555b6001600160a01b03821661075157600280548290039055610770565b6001600160a01b03821660009081526020819052604090208054820190555b816001600160a01b0316836001600160a01b03167fddf252ad1be2c89b69c2b068fc378daa952ba7f163c4a11628f55a4df523b3ef836040516107b591815260200190565b60405180910390a3505050565b60006020808352835180602085015260005b818110156107f0578581018301518582016040015282016107d4565b506000604082860101526040601f19601f8301168501019250505092915050565b80356001600160a01b038116811461082857600080fd5b919050565b6000806040838503121561084057600080fd5b61084983610811565b946020939093013593505050565b60008060006060848603121561086c57600080fd5b61087584610811565b925061088360208501610811565b9150604084013590509250925092565b6000602082840312156108a557600080fd5b6108ae82610811565b9392505050565b600080604083850312156108c857600080fd5b6108d183610811565b91506108df60208401610811565b90509250929050565b600181811c908216806108fc57607f821691505b60208210810361091c57634e487b7160e01b600052602260045260246000fd5b50919050565b808201808211156102f957634e487b7160e01b600052601160045260246000fdfea2646970667358221220060d63ca4667f5131a1aef2bb86b2351fb541cb0209b75d4c6e2edd98510890564736f6c63430008170033",
  "devdoc": {
    "errors": {
      "OwnableInvalidOwner(address)": [
        {
          "details": "The owner is not a valid owner account. (eg. `address(0)`)"
        }
      ],
      "OwnableUnauthorizedAccount(address)": [
        {
          "details": "The caller account is not authorized to perform an operation."
        }
      ]
    },
    "kind": "dev",
    "methods": {
      "owner()": {
        "details": "Returns the address of the current owner."
      },
      "renounceOwnership()": {
        "details": "Leaves the contract without owner. It will not be possible to call `onlyOwner` functions. Can only be called by the current owner. NOTE: Renouncing ownership will leave the contract without an owner, thereby disabling any functionality that is only available to the owner."
      },
      "transferOwnership(address)": {
        "details": "Transfers ownership of the contract to a new account (`newOwner`). Can only be called by the current owner."
      }
    },
    "version": 1
  },
  "userdoc": {
    "kind": "user",
    "methods": {},
    "version": 1
  },
  "storageLayout": {
    "storage": [
      {
        "astId": 8,
        "contract": "contracts/TimeMiner.sol:TimeMiner",
        "label": "_owner",
        "offset": 0,
        "slot": "0",
        "type": "t_address"
      },
      {
        "astId": 1007,
        "contract": "contracts/TimeMiner.sol:TimeMiner",
        "label": "miners",
        "offset": 0,
        "slot": "1",
        "type": "t_mapping(t_address,t_mapping(t_uint256,t_struct(MinerData)1000_storage))"
      },
      {
        "astId": 1011,
        "contract": "contracts/TimeMiner.sol:TimeMiner",
        "label": "minerCount",
        "offset": 0,
        "slot": "2",
        "type": "t_mapping(t_address,t_uint256)"
      },
      {
        "astId": 1014,
        "contract": "contracts/TimeMiner.sol:TimeMiner",
        "label": "allMiners",
        "offset": 0,
        "slot": "3",
        "type": "t_array(t_address)dyn_storage"
      },
      {
        "astId": 1018,
        "contract": "contracts/TimeMiner.sol:TimeMiner",
        "label": "registeredMiners",
        "offset": 0,
        "slot": "4",
        "type": "t_mapping(t_address,t_bool)"
      },
      {
        "astId": 1020,
        "contract": "contracts/TimeMiner.sol:TimeMiner",
        "label": "totalMinedGlobal",
        "offset": 0,
        "slot": "5",
        "type": "t_uint256"
      },
      {
        "astId": 1025,
        "contract": "contracts/TimeMiner.sol:TimeMiner",
        "label": "ore",
        "offset": 0,
        "slot": "6",
        "type": "t_contract(OREToken)987"
      },
      {
        "astId": 1046,
        "contract": "contracts/TimeMiner.sol:TimeMiner",
        "label": "miner1UpgradeCosts",
        "offset": 0,
        "slot": "7",
        "type": "t_array(t_uint256)4_storage"
      },
      {
        "astId": 1056,
        "contract": "contracts/TimeMiner.sol:TimeMiner",
        "label": "miner1Powers",
        "offset": 0,
        "slot": "11",
        "type": "t_array(t_uint256)5_storage"
      },
      {
        "astId": 1068,
        "contract": "contracts/TimeMiner.sol:TimeMiner",
        "label": "miner2UpgradeCosts",
        "offset": 0,
        "slot": "16",
        "type": "t_array(t_uint256)4_storage"
      },
      {
        "astId": 1078,
        "contract": "contracts/TimeMiner.sol:TimeMiner",
        "label": "miner2Powers",
        "offset": 0,
        "slot": "20",
        "type": "t_array(t_uint256)5_storage"
      },
      {
        "astId": 1090,
        "contract": "contracts/TimeMiner.sol:TimeMiner",
        "label": "miner3UpgradeCosts",
        "offset": 0,
        "slot": "25",
        "type": "t_array(t_uint256)4_storage"
      },
      {
        "astId": 1100,
        "contract": "contracts/TimeMiner.sol:TimeMiner",
        "label": "miner3Powers",
        "offset": 0,
        "slot": "29",
        "type": "t_array(t_uint256)5_storage"
      }
    ],
    "types": {
      "t_address": {
        "encoding": "inplace",
        "label": "address",
        "numberOfBytes": "20"
      },
      "t_array(t_address)dyn_storage": {
        "base": "t_address",
        "encoding": "dynamic_array",
        "label": "address[]",
        "numberOfBytes": "32"
      },
      "t_array(t_uint256)4_storage": {
        "base": "t_uint256",
        "encoding": "inplace",
        "label": "uint256[4]",
        "numberOfBytes": "128"
      },
      "t_array(t_uint256)5_storage": {
        "base": "t_uint256",
        "encoding": "inplace",
        "label": "uint256[5]",
        "numberOfBytes": "160"
      },
      "t_bool": {
        "encoding": "inplace",
        "label": "bool",
        "numberOfBytes": "1"
      },
      "t_contract(OREToken)987": {
        "encoding": "inplace",
        "label": "contract OREToken",
        "numberOfBytes": "20"
      },
      "t_mapping(t_address,t_bool)": {
        "encoding": "mapping",
        "key": "t_address",
        "label": "mapping(address => bool)",
        "numberOfBytes": "32",
        "value": "t_bool"
      },
      "t_mapping(t_address,t_mapping(t_uint256,t_struct(MinerData)1000_storage))": {
        "encoding": "mapping",
        "key": "t_address",
        "label": "mapping(address => mapping(uint256 => struct TimeMiner.MinerData))",
        "numberOfBytes": "32",
        "value": "t_mapping(t_uint256,t_struct(MinerData)1000_storage)"
      },
      "t_mapping(t_address,t_uint256)": {
        "encoding": "mapping",
        "key": "t_address",
        "label": "mapping(address => uint256)",
        "numberOfBytes": "32",
        "value": "t_uint256"
      },
      "t_mapping(t_uint256,t_struct(MinerData)1000_storage)": {
        "encoding": "mapping",
        "key": "t_uint256",
        "label": "mapping(uint256 => struct TimeMiner.MinerData)",
        "numberOfBytes": "32",
        "value": "t_struct(MinerData)1000_storage"
      },
      "t_struct(MinerData)1000_storage": {
        "encoding": "inplace",
        "label": "struct TimeMiner.MinerData",
        "members": [
          {
            "astId": 991,
            "contract": "contracts/TimeMiner.sol:TimeMiner",
            "label": "exists",
            "offset": 0,
            "slot": "0",
            "type": "t_bool"
          },
          {
            "astId": 993,
            "contract": "contracts/TimeMiner.sol:TimeMiner",
            "label": "level",
            "offset": 0,
            "slot": "1",
            "type": "t_uint256"
          },
          {
            "astId": 995,
            "contract": "contracts/TimeMiner.sol:TimeMiner",
            "label": "lastClaim",
            "offset": 0,
            "slot": "2",
            "type": "t_uint256"
          },
          {
            "astId": 997,
            "contract": "contracts/TimeMiner.sol:TimeMiner",
            "label": "totalMined",
            "offset": 0,
            "slot": "3",
            "type": "t_uint256"
          },
          {
            "astId": 999,
            "contract": "contracts/TimeMiner.sol:TimeMiner",
            "label": "power",
            "offset": 0,
            "slot": "4",
            "type": "t_uint256"
          }
        ],
        "numberOfBytes": "160"
      },
      "t_uint256": {
        "encoding": "inplace",
        "label": "uint256",
        "numberOfBytes": "32"
      }
    }
  }
}